{
  "contractName": "Marketplace",
  "abi": [
    {
      "inputs": [
        {
          "internalType": "uint256",
          "name": "_feePercent",
          "type": "uint256"
        }
      ],
      "stateMutability": "nonpayable",
      "type": "constructor"
    },
    {
      "anonymous": false,
      "inputs": [
        {
          "indexed": false,
          "internalType": "uint256",
          "name": "itemId",
          "type": "uint256"
        },
        {
          "indexed": true,
          "internalType": "address",
          "name": "inmobilaria",
          "type": "address"
        },
        {
          "indexed": false,
          "internalType": "uint256",
          "name": "tokenId",
          "type": "uint256"
        },
        {
          "indexed": false,
          "internalType": "uint256",
          "name": "precio",
          "type": "uint256"
        },
        {
          "indexed": true,
          "internalType": "address",
          "name": "vendedor",
          "type": "address"
        },
        {
          "indexed": true,
          "internalType": "address",
          "name": "comprador",
          "type": "address"
        }
      ],
      "name": "Compra",
      "type": "event"
    },
    {
      "anonymous": false,
      "inputs": [
        {
          "indexed": false,
          "internalType": "uint256",
          "name": "itemId",
          "type": "uint256"
        },
        {
          "indexed": true,
          "internalType": "address",
          "name": "inmobilaria",
          "type": "address"
        },
        {
          "indexed": false,
          "internalType": "uint256",
          "name": "tokenId",
          "type": "uint256"
        },
        {
          "indexed": false,
          "internalType": "uint256",
          "name": "precio",
          "type": "uint256"
        },
        {
          "indexed": true,
          "internalType": "address",
          "name": "vendedor",
          "type": "address"
        }
      ],
      "name": "Oferta",
      "type": "event"
    },
    {
      "inputs": [],
      "name": "feeAccount",
      "outputs": [
        {
          "internalType": "address payable",
          "name": "",
          "type": "address"
        }
      ],
      "stateMutability": "view",
      "type": "function",
      "constant": true
    },
    {
      "inputs": [],
      "name": "feePercent",
      "outputs": [
        {
          "internalType": "uint256",
          "name": "",
          "type": "uint256"
        }
      ],
      "stateMutability": "view",
      "type": "function",
      "constant": true
    },
    {
      "inputs": [],
      "name": "itemCount",
      "outputs": [
        {
          "internalType": "uint256",
          "name": "",
          "type": "uint256"
        }
      ],
      "stateMutability": "view",
      "type": "function",
      "constant": true
    },
    {
      "inputs": [
        {
          "internalType": "uint256",
          "name": "",
          "type": "uint256"
        }
      ],
      "name": "items",
      "outputs": [
        {
          "internalType": "uint256",
          "name": "itemId",
          "type": "uint256"
        },
        {
          "internalType": "contract IERC721",
          "name": "inmobilaria",
          "type": "address"
        },
        {
          "internalType": "uint256",
          "name": "tokenId",
          "type": "uint256"
        },
        {
          "internalType": "uint256",
          "name": "precio",
          "type": "uint256"
        },
        {
          "internalType": "address payable",
          "name": "vendedor",
          "type": "address"
        },
        {
          "internalType": "bool",
          "name": "vendido",
          "type": "bool"
        }
      ],
      "stateMutability": "view",
      "type": "function",
      "constant": true
    },
    {
      "inputs": [
        {
          "internalType": "contract IERC721",
          "name": "_inmobilaria",
          "type": "address"
        },
        {
          "internalType": "uint256",
          "name": "_tokenId",
          "type": "uint256"
        },
        {
          "internalType": "uint256",
          "name": "_precio",
          "type": "uint256"
        }
      ],
      "name": "crearToken",
      "outputs": [],
      "stateMutability": "nonpayable",
      "type": "function"
    },
    {
      "inputs": [
        {
          "internalType": "uint256",
          "name": "_itemId",
          "type": "uint256"
        }
      ],
      "name": "comprarToken",
      "outputs": [],
      "stateMutability": "payable",
      "type": "function",
      "payable": true
    },
    {
      "inputs": [
        {
          "internalType": "uint256",
          "name": "_itemId",
          "type": "uint256"
        }
      ],
      "name": "obtenerPrecioTotal",
      "outputs": [
        {
          "internalType": "uint256",
          "name": "",
          "type": "uint256"
        }
      ],
      "stateMutability": "view",
      "type": "function",
      "constant": true
    }
  ],
  "bytecode": "0x60c060405234801561001057600080fd5b50604051610ebd380380610ebd833981810160405281019061003291906100b7565b60016000819055503373ffffffffffffffffffffffffffffffffffffffff1660808173ffffffffffffffffffffffffffffffffffffffff16815250508060a08181525050506100e4565b600080fd5b6000819050919050565b61009481610081565b811461009f57600080fd5b50565b6000815190506100b18161008b565b92915050565b6000602082840312156100cd576100cc61007c565b5b60006100db848285016100a2565b91505092915050565b60805160a051610da6610117600039600081816101c0015261024901526000818161021f01526103d50152610da66000f3fe6080604052600436106100705760003560e01c80637fd6f15c1161004e5780637fd6f15c14610108578063bfb231d214610133578063d2dd851b14610175578063e01ccdd21461019157610070565b80635d75e9fb1461007557806365e17c9d146100b25780636bfb0d01146100dd575b600080fd5b34801561008157600080fd5b5061009c600480360381019061009791906108c4565b6101ba565b6040516100a99190610900565b60405180910390f35b3480156100be57600080fd5b506100c761021d565b6040516100d4919061095c565b60405180910390f35b3480156100e957600080fd5b506100f2610241565b6040516100ff9190610900565b60405180910390f35b34801561011457600080fd5b5061011d610247565b60405161012a9190610900565b60405180910390f35b34801561013f57600080fd5b5061015a600480360381019061015591906108c4565b61026b565b60405161016c969594939291906109f1565b60405180910390f35b61018f600480360381019061018a91906108c4565b6102f4565b005b34801561019d57600080fd5b506101b860048036038101906101b39190610aa2565b6105da565b005b600060647f000000000000000000000000000000000000000000000000000000000000000060646101eb9190610b24565b600260008581526020019081526020016000206003015461020c9190610b58565b6102169190610bc9565b9050919050565b7f000000000000000000000000000000000000000000000000000000000000000081565b60015481565b7f000000000000000000000000000000000000000000000000000000000000000081565b60026020528060005260406000206000915090508060000154908060010160009054906101000a900473ffffffffffffffffffffffffffffffffffffffff16908060020154908060030154908060040160009054906101000a900473ffffffffffffffffffffffffffffffffffffffff16908060040160149054906101000a900460ff16905086565b6102fc610830565b6000610307826101ba565b9050600060026000848152602001908152602001600020905060008311801561033257506001548311155b61033b57600080fd5b8134101561034857600080fd5b8060040160149054906101000a900460ff161561036457600080fd5b8060040160009054906101000a900473ffffffffffffffffffffffffffffffffffffffff1673ffffffffffffffffffffffffffffffffffffffff166108fc82600301549081150290604051600060405180830381858888f193505050501580156103d2573d6000803e3d6000fd5b507f000000000000000000000000000000000000000000000000000000000000000073ffffffffffffffffffffffffffffffffffffffff166108fc82600301548461041d9190610bfa565b9081150290604051600060405180830381858888f19350505050158015610448573d6000803e3d6000fd5b5060018160040160146101000a81548160ff0219169083151502179055508060010160009054906101000a900473ffffffffffffffffffffffffffffffffffffffff1673ffffffffffffffffffffffffffffffffffffffff166323b872dd303384600201546040518463ffffffff1660e01b81526004016104cb93929190610c3d565b600060405180830381600087803b1580156104e557600080fd5b505af11580156104f9573d6000803e3d6000fd5b505050503373ffffffffffffffffffffffffffffffffffffffff168160040160009054906101000a900473ffffffffffffffffffffffffffffffffffffffff1673ffffffffffffffffffffffffffffffffffffffff168260010160009054906101000a900473ffffffffffffffffffffffffffffffffffffffff1673ffffffffffffffffffffffffffffffffffffffff167f14a69960ed598ae1a8839b33c365423179f509975f0967c3143583b7528354b686856002015486600301546040516105c593929190610c74565b60405180910390a450506105d761087f565b50565b6105e2610830565b600081116105ef57600080fd5b6001600081548092919061060290610cab565b91905055508273ffffffffffffffffffffffffffffffffffffffff166323b872dd3330856040518463ffffffff1660e01b815260040161064493929190610c3d565b600060405180830381600087803b15801561065e57600080fd5b505af1158015610672573d6000803e3d6000fd5b505050506040518060c0016040528060015481526020018473ffffffffffffffffffffffffffffffffffffffff1681526020018381526020018281526020013373ffffffffffffffffffffffffffffffffffffffff168152602001600015158152506002600060015481526020019081526020016000206000820151816000015560208201518160010160006101000a81548173ffffffffffffffffffffffffffffffffffffffff021916908373ffffffffffffffffffffffffffffffffffffffff160217905550604082015181600201556060820151816003015560808201518160040160006101000a81548173ffffffffffffffffffffffffffffffffffffffff021916908373ffffffffffffffffffffffffffffffffffffffff16021790555060a08201518160040160146101000a81548160ff0219169083151502179055509050503373ffffffffffffffffffffffffffffffffffffffff168373ffffffffffffffffffffffffffffffffffffffff167f2f542707830c72581c748293d2c0b42a518d6feab4fb60e133c586159b7a9eaf600154858560405161081b93929190610c74565b60405180910390a361082b61087f565b505050565b600260005403610875576040517f08c379a000000000000000000000000000000000000000000000000000000000815260040161086c90610d50565b60405180910390fd5b6002600081905550565b6001600081905550565b600080fd5b6000819050919050565b6108a18161088e565b81146108ac57600080fd5b50565b6000813590506108be81610898565b92915050565b6000602082840312156108da576108d9610889565b5b60006108e8848285016108af565b91505092915050565b6108fa8161088e565b82525050565b600060208201905061091560008301846108f1565b92915050565b600073ffffffffffffffffffffffffffffffffffffffff82169050919050565b60006109468261091b565b9050919050565b6109568161093b565b82525050565b6000602082019050610971600083018461094d565b92915050565b6000819050919050565b600061099c6109976109928461091b565b610977565b61091b565b9050919050565b60006109ae82610981565b9050919050565b60006109c0826109a3565b9050919050565b6109d0816109b5565b82525050565b60008115159050919050565b6109eb816109d6565b82525050565b600060c082019050610a0660008301896108f1565b610a1360208301886109c7565b610a2060408301876108f1565b610a2d60608301866108f1565b610a3a608083018561094d565b610a4760a08301846109e2565b979650505050505050565b6000610a5d8261091b565b9050919050565b6000610a6f82610a52565b9050919050565b610a7f81610a64565b8114610a8a57600080fd5b50565b600081359050610a9c81610a76565b92915050565b600080600060608486031215610abb57610aba610889565b5b6000610ac986828701610a8d565b9350506020610ada868287016108af565b9250506040610aeb868287016108af565b9150509250925092565b7f4e487b7100000000000000000000000000000000000000000000000000000000600052601160045260246000fd5b6000610b2f8261088e565b9150610b3a8361088e565b9250828201905080821115610b5257610b51610af5565b5b92915050565b6000610b638261088e565b9150610b6e8361088e565b9250828202610b7c8161088e565b91508282048414831517610b9357610b92610af5565b5b5092915050565b7f4e487b7100000000000000000000000000000000000000000000000000000000600052601260045260246000fd5b6000610bd48261088e565b9150610bdf8361088e565b925082610bef57610bee610b9a565b5b828204905092915050565b6000610c058261088e565b9150610c108361088e565b9250828203905081811115610c2857610c27610af5565b5b92915050565b610c3781610a52565b82525050565b6000606082019050610c526000830186610c2e565b610c5f6020830185610c2e565b610c6c60408301846108f1565b949350505050565b6000606082019050610c8960008301866108f1565b610c9660208301856108f1565b610ca360408301846108f1565b949350505050565b6000610cb68261088e565b91507fffffffffffffffffffffffffffffffffffffffffffffffffffffffffffffffff8203610ce857610ce7610af5565b5b600182019050919050565b600082825260208201905092915050565b7f5265656e7472616e637947756172643a207265656e7472616e742063616c6c00600082015250565b6000610d3a601f83610cf3565b9150610d4582610d04565b602082019050919050565b60006020820190508181036000830152610d6981610d2d565b905091905056fea2646970667358221220f118b0611ed7a89c4af725ad6a773f7d4ba9ab472add772c26606b8846d3ff8364736f6c63430008130033",
  "immutableReferences": {
    "2861": [
      {
        "length": 32,
        "start": 543
      },
      {
        "length": 32,
        "start": 981
      }
    ],
    "2863": [
      {
        "length": 32,
        "start": 448
      },
      {
        "length": 32,
        "start": 585
      }
    ]
  },
  "source": "// SPDX-License-Identifier: MIT\r\npragma solidity 0.8.19;\r\n\r\nimport \"@openzeppelin/contracts/token/ERC721/IERC721.sol\";\r\nimport \"@openzeppelin/contracts/security/ReentrancyGuard.sol\";\r\n\r\ncontract Marketplace is ReentrancyGuard {\r\n\r\n    //Variables\r\n    address payable public immutable feeAccount; //Direccin que recibe los pagos de muchos usuarios\r\n    uint public immutable feePercent; //Porcentaje a pagar por crear un token\r\n    uint public itemCount; //Contar cuntos items estn creados en nuestra markeplace\r\n\r\n    struct Item {\r\n        uint itemId; //Item del token de la inmobilaria\r\n        IERC721 inmobilaria;\r\n        uint tokenId;\r\n        uint precio;\r\n        address payable vendedor;\r\n        bool vendido;\r\n    }\r\n\r\n    mapping(uint => Item) public items;\r\n\r\n    //Evento para la oferta del token\r\n    event Oferta(\r\n        uint itemId,\r\n        address indexed inmobilaria,\r\n        uint tokenId,\r\n        uint precio,\r\n        address indexed vendedor\r\n        \r\n    );\r\n\r\n    //Evento para la realizancin de las compras\r\n    event Compra(\r\n        uint itemId,\r\n        address indexed inmobilaria,\r\n        uint tokenId,\r\n        uint precio,\r\n        address indexed vendedor,\r\n        address indexed comprador\r\n    );\r\n\r\n\r\n    constructor (uint _feePercent){\r\n        feeAccount = payable(msg.sender); //esta lnea de cdigo toma la direccin del quien despleg el contrato y la almacena en la variable feeAccount despus de convertirla en una direccin pagable.\r\n        feePercent = _feePercent;\r\n    }\r\n\r\n    function crearToken(IERC721 _inmobilaria, uint _tokenId, uint _precio ) external nonReentrant {\r\n        require(_precio > 0);\r\n        itemCount++;\r\n        _inmobilaria.transferFrom(msg.sender, address(this), _tokenId);\r\n        items[itemCount] = Item(\r\n            itemCount,\r\n            _inmobilaria,\r\n            _tokenId,\r\n            _precio,\r\n            payable(msg.sender), //De pago porque podr recibir pagos\r\n            false\r\n        );\r\n\r\n        //Se emite la oferta en el mercado\r\n        //Recibe el id del item, la direccin del token, el id del token, y la direccin del vendedor\r\n        emit Oferta(itemCount, address(_inmobilaria), _tokenId, _precio, msg.sender);\r\n        \r\n    }\r\n\r\n    //Funcin para realizar las compras\r\n    function comprarToken(uint _itemId) external payable nonReentrant{\r\n        uint _precioTotal = obtenerPrecioTotal(_itemId);\r\n        Item storage item = items[_itemId]; //definimos la variable item y referencia _itemId del mapping\r\n        require(_itemId > 0 && _itemId <= itemCount );\r\n        require(msg.value >= _precioTotal);\r\n        require(!item.vendido); //En este momento tiene que estar en false\r\n        item.vendedor.transfer(item.precio);\r\n        feeAccount.transfer(_precioTotal - item.precio); //al precioTotal se le resta el precio del token y slo queda el porcentaje de la comisin\r\n        item.vendido = true;\r\n        item.inmobilaria.transferFrom(address(this), msg.sender, item.tokenId);\r\n        //Se emite el evento de compra\r\n        emit Compra(_itemId, address(item.inmobilaria), item.tokenId, item.precio, item.vendedor, msg.sender); \r\n    }\r\n\r\n    //Visualizar de forma pblica el precio del token\r\n    function obtenerPrecioTotal(uint _itemId) view public returns (uint){\r\n        return ((items[_itemId].precio*(100 + feePercent))/100);  //((items[_itemId]. precio)) - Para acceder al precio \r\n    }\r\n\r\n}",
  "sourcePath": "C:\\Programacion\\Conexion\\Prop-token-LACC\\frontend\\contracts\\Marketplace.sol",
  "compiler": {
    "name": "solc",
    "version": "0.8.19+commit.7dd6d404.Emscripten.clang"
  },
  "schemaVersion": "3.4.16",
  "updatedAt": "2023-10-27T11:47:48.945Z",
  "networkType": "ethereum",
  "devdoc": {
    "kind": "dev",
    "methods": {},
    "version": 1
  },
  "userdoc": {
    "kind": "user",
    "methods": {},
    "version": 1
  }
}