{
  "contractName": "PropiedadNFT",
  "abi": [
    {
      "inputs": [],
      "stateMutability": "nonpayable",
      "type": "constructor"
    },
    {
      "anonymous": false,
      "inputs": [
        {
          "indexed": true,
          "internalType": "address",
          "name": "owner",
          "type": "address"
        },
        {
          "indexed": true,
          "internalType": "address",
          "name": "approved",
          "type": "address"
        },
        {
          "indexed": true,
          "internalType": "uint256",
          "name": "tokenId",
          "type": "uint256"
        }
      ],
      "name": "Approval",
      "type": "event"
    },
    {
      "anonymous": false,
      "inputs": [
        {
          "indexed": true,
          "internalType": "address",
          "name": "owner",
          "type": "address"
        },
        {
          "indexed": true,
          "internalType": "address",
          "name": "operator",
          "type": "address"
        },
        {
          "indexed": false,
          "internalType": "bool",
          "name": "approved",
          "type": "bool"
        }
      ],
      "name": "ApprovalForAll",
      "type": "event"
    },
    {
      "anonymous": false,
      "inputs": [
        {
          "indexed": true,
          "internalType": "address",
          "name": "previousOwner",
          "type": "address"
        },
        {
          "indexed": true,
          "internalType": "address",
          "name": "newOwner",
          "type": "address"
        }
      ],
      "name": "OwnershipTransferred",
      "type": "event"
    },
    {
      "anonymous": false,
      "inputs": [
        {
          "indexed": true,
          "internalType": "address",
          "name": "from",
          "type": "address"
        },
        {
          "indexed": true,
          "internalType": "address",
          "name": "to",
          "type": "address"
        },
        {
          "indexed": true,
          "internalType": "uint256",
          "name": "tokenId",
          "type": "uint256"
        }
      ],
      "name": "Transfer",
      "type": "event"
    },
    {
      "inputs": [
        {
          "internalType": "address",
          "name": "to",
          "type": "address"
        },
        {
          "internalType": "uint256",
          "name": "tokenId",
          "type": "uint256"
        }
      ],
      "name": "approve",
      "outputs": [],
      "stateMutability": "nonpayable",
      "type": "function"
    },
    {
      "inputs": [
        {
          "internalType": "address",
          "name": "owner",
          "type": "address"
        }
      ],
      "name": "balanceOf",
      "outputs": [
        {
          "internalType": "uint256",
          "name": "",
          "type": "uint256"
        }
      ],
      "stateMutability": "view",
      "type": "function",
      "constant": true
    },
    {
      "inputs": [
        {
          "internalType": "uint256",
          "name": "tokenId",
          "type": "uint256"
        }
      ],
      "name": "getApproved",
      "outputs": [
        {
          "internalType": "address",
          "name": "",
          "type": "address"
        }
      ],
      "stateMutability": "view",
      "type": "function",
      "constant": true
    },
    {
      "inputs": [
        {
          "internalType": "address",
          "name": "owner",
          "type": "address"
        },
        {
          "internalType": "address",
          "name": "operator",
          "type": "address"
        }
      ],
      "name": "isApprovedForAll",
      "outputs": [
        {
          "internalType": "bool",
          "name": "",
          "type": "bool"
        }
      ],
      "stateMutability": "view",
      "type": "function",
      "constant": true
    },
    {
      "inputs": [],
      "name": "name",
      "outputs": [
        {
          "internalType": "string",
          "name": "",
          "type": "string"
        }
      ],
      "stateMutability": "view",
      "type": "function",
      "constant": true
    },
    {
      "inputs": [],
      "name": "owner",
      "outputs": [
        {
          "internalType": "address",
          "name": "",
          "type": "address"
        }
      ],
      "stateMutability": "view",
      "type": "function",
      "constant": true
    },
    {
      "inputs": [
        {
          "internalType": "uint256",
          "name": "tokenId",
          "type": "uint256"
        }
      ],
      "name": "ownerOf",
      "outputs": [
        {
          "internalType": "address",
          "name": "",
          "type": "address"
        }
      ],
      "stateMutability": "view",
      "type": "function",
      "constant": true
    },
    {
      "inputs": [
        {
          "internalType": "uint256",
          "name": "",
          "type": "uint256"
        }
      ],
      "name": "propiedades",
      "outputs": [
        {
          "internalType": "address",
          "name": "propietario",
          "type": "address"
        },
        {
          "internalType": "string",
          "name": "direccion",
          "type": "string"
        },
        {
          "internalType": "string",
          "name": "descripcion",
          "type": "string"
        },
        {
          "internalType": "uint256",
          "name": "precio",
          "type": "uint256"
        }
      ],
      "stateMutability": "view",
      "type": "function",
      "constant": true
    },
    {
      "inputs": [],
      "name": "renounceOwnership",
      "outputs": [],
      "stateMutability": "nonpayable",
      "type": "function"
    },
    {
      "inputs": [
        {
          "internalType": "address",
          "name": "from",
          "type": "address"
        },
        {
          "internalType": "address",
          "name": "to",
          "type": "address"
        },
        {
          "internalType": "uint256",
          "name": "tokenId",
          "type": "uint256"
        }
      ],
      "name": "safeTransferFrom",
      "outputs": [],
      "stateMutability": "nonpayable",
      "type": "function"
    },
    {
      "inputs": [
        {
          "internalType": "address",
          "name": "from",
          "type": "address"
        },
        {
          "internalType": "address",
          "name": "to",
          "type": "address"
        },
        {
          "internalType": "uint256",
          "name": "tokenId",
          "type": "uint256"
        },
        {
          "internalType": "bytes",
          "name": "data",
          "type": "bytes"
        }
      ],
      "name": "safeTransferFrom",
      "outputs": [],
      "stateMutability": "nonpayable",
      "type": "function"
    },
    {
      "inputs": [
        {
          "internalType": "address",
          "name": "operator",
          "type": "address"
        },
        {
          "internalType": "bool",
          "name": "approved",
          "type": "bool"
        }
      ],
      "name": "setApprovalForAll",
      "outputs": [],
      "stateMutability": "nonpayable",
      "type": "function"
    },
    {
      "inputs": [
        {
          "internalType": "bytes4",
          "name": "interfaceId",
          "type": "bytes4"
        }
      ],
      "name": "supportsInterface",
      "outputs": [
        {
          "internalType": "bool",
          "name": "",
          "type": "bool"
        }
      ],
      "stateMutability": "view",
      "type": "function",
      "constant": true
    },
    {
      "inputs": [],
      "name": "symbol",
      "outputs": [
        {
          "internalType": "string",
          "name": "",
          "type": "string"
        }
      ],
      "stateMutability": "view",
      "type": "function",
      "constant": true
    },
    {
      "inputs": [
        {
          "internalType": "uint256",
          "name": "tokenId",
          "type": "uint256"
        }
      ],
      "name": "tokenURI",
      "outputs": [
        {
          "internalType": "string",
          "name": "",
          "type": "string"
        }
      ],
      "stateMutability": "view",
      "type": "function",
      "constant": true
    },
    {
      "inputs": [
        {
          "internalType": "address",
          "name": "from",
          "type": "address"
        },
        {
          "internalType": "address",
          "name": "to",
          "type": "address"
        },
        {
          "internalType": "uint256",
          "name": "tokenId",
          "type": "uint256"
        }
      ],
      "name": "transferFrom",
      "outputs": [],
      "stateMutability": "nonpayable",
      "type": "function"
    },
    {
      "inputs": [
        {
          "internalType": "address",
          "name": "newOwner",
          "type": "address"
        }
      ],
      "name": "transferOwnership",
      "outputs": [],
      "stateMutability": "nonpayable",
      "type": "function"
    },
    {
      "inputs": [
        {
          "internalType": "string",
          "name": "_descripcion",
          "type": "string"
        },
        {
          "internalType": "string",
          "name": "_direccion",
          "type": "string"
        },
        {
          "internalType": "uint256",
          "name": "_precio",
          "type": "uint256"
        }
      ],
      "name": "crearPropiedad",
      "outputs": [],
      "stateMutability": "nonpayable",
      "type": "function"
    },
    {
      "inputs": [
        {
          "internalType": "uint256",
          "name": "_IDToken",
          "type": "uint256"
        },
        {
          "internalType": "string",
          "name": "_descripcion",
          "type": "string"
        },
        {
          "internalType": "string",
          "name": "_direccion",
          "type": "string"
        },
        {
          "internalType": "uint256",
          "name": "_precio",
          "type": "uint256"
        }
      ],
      "name": "actualizarPropiedad",
      "outputs": [],
      "stateMutability": "nonpayable",
      "type": "function"
    },
    {
      "inputs": [
        {
          "internalType": "uint256",
          "name": "_IDToken",
          "type": "uint256"
        }
      ],
      "name": "obtenerDetallesDePropiedad",
      "outputs": [
        {
          "internalType": "address",
          "name": "",
          "type": "address"
        },
        {
          "internalType": "string",
          "name": "",
          "type": "string"
        },
        {
          "internalType": "string",
          "name": "",
          "type": "string"
        },
        {
          "internalType": "uint256",
          "name": "",
          "type": "uint256"
        }
      ],
      "stateMutability": "view",
      "type": "function",
      "constant": true
    }
  ],
  "bytecode": "0x60806040523480156200001157600080fd5b506040518060400160405280601081526020017f4e46542064652050726f706965646164000000000000000000000000000000008152506040518060400160405280600481526020017f4e4654500000000000000000000000000000000000000000000000000000000081525081600090816200008f91906200041a565b508060019081620000a191906200041a565b505050620000c4620000b8620000d260201b60201c565b620000da60201b60201c565b600060078190555062000501565b600033905090565b6000600660009054906101000a900473ffffffffffffffffffffffffffffffffffffffff16905081600660006101000a81548173ffffffffffffffffffffffffffffffffffffffff021916908373ffffffffffffffffffffffffffffffffffffffff1602179055508173ffffffffffffffffffffffffffffffffffffffff168173ffffffffffffffffffffffffffffffffffffffff167f8be0079c531659141344cd1fd0a4f28419497f9722a3daafe3b4186f6b6457e060405160405180910390a35050565b600081519050919050565b7f4e487b7100000000000000000000000000000000000000000000000000000000600052604160045260246000fd5b7f4e487b7100000000000000000000000000000000000000000000000000000000600052602260045260246000fd5b600060028204905060018216806200022257607f821691505b602082108103620002385762000237620001da565b5b50919050565b60008190508160005260206000209050919050565b60006020601f8301049050919050565b600082821b905092915050565b600060088302620002a27fffffffffffffffffffffffffffffffffffffffffffffffffffffffffffffffff8262000263565b620002ae868362000263565b95508019841693508086168417925050509392505050565b6000819050919050565b6000819050919050565b6000620002fb620002f5620002ef84620002c6565b620002d0565b620002c6565b9050919050565b6000819050919050565b6200031783620002da565b6200032f620003268262000302565b84845462000270565b825550505050565b600090565b6200034662000337565b620003538184846200030c565b505050565b5b818110156200037b576200036f6000826200033c565b60018101905062000359565b5050565b601f821115620003ca5762000394816200023e565b6200039f8462000253565b81016020851015620003af578190505b620003c7620003be8562000253565b83018262000358565b50505b505050565b600082821c905092915050565b6000620003ef60001984600802620003cf565b1980831691505092915050565b60006200040a8383620003dc565b9150826002028217905092915050565b6200042582620001a0565b67ffffffffffffffff811115620004415762000440620001ab565b5b6200044d825462000209565b6200045a8282856200037f565b600060209050601f8311600181146200049257600084156200047d578287015190505b620004898582620003fc565b865550620004f9565b601f198416620004a2866200023e565b60005b82811015620004cc57848901518255600182019150602085019450602081019050620004a5565b86831015620004ec5784890151620004e8601f891682620003dc565b8355505b6001600288020188555050505b505050505050565b6133dc80620005116000396000f3fe608060405234801561001057600080fd5b506004361061012c5760003560e01c80636352211e116100ad578063a22cb46511610071578063a22cb46514610347578063b88d4fde14610363578063c87b56dd1461037f578063e985e9c5146103af578063f2fde38b146103df5761012c565b80636352211e146102a157806370a08231146102d1578063715018a6146103015780638da5cb5b1461030b57806395d89b41146103295761012c565b80630bb5643b116100f45780630bb5643b146101e757806313175b741461021a57806323b872dd1461023657806341591c511461025257806342842e0e146102855761012c565b806301ffc9a71461013157806306fdde0314610161578063081812fc1461017f578063095ea7b3146101af5780630a7f2e0d146101cb575b600080fd5b61014b60048036038101906101469190611fdd565b6103fb565b6040516101589190612025565b60405180910390f35b6101696104dd565b60405161017691906120d0565b60405180910390f35b61019960048036038101906101949190612128565b61056f565b6040516101a69190612196565b60405180910390f35b6101c960048036038101906101c491906121dd565b6105b5565b005b6101e560048036038101906101e09190612352565b6106cc565b005b61020160048036038101906101fc9190612128565b6107f5565b6040516102119493929190612400565b60405180910390f35b610234600480360381019061022f9190612453565b610955565b005b610250600480360381019061024b91906124de565b610a7c565b005b61026c60048036038101906102679190612128565b610adc565b60405161027c9493929190612400565b60405180910390f35b61029f600480360381019061029a91906124de565b610cb4565b005b6102bb60048036038101906102b69190612128565b610cd4565b6040516102c89190612196565b60405180910390f35b6102eb60048036038101906102e69190612531565b610d5a565b6040516102f8919061255e565b60405180910390f35b610309610e11565b005b610313610e25565b6040516103209190612196565b60405180910390f35b610331610e4f565b60405161033e91906120d0565b60405180910390f35b610361600480360381019061035c91906125a5565b610ee1565b005b61037d60048036038101906103789190612686565b610ef7565b005b61039960048036038101906103949190612128565b610f59565b6040516103a691906120d0565b60405180910390f35b6103c960048036038101906103c49190612709565b610fc1565b6040516103d69190612025565b60405180910390f35b6103f960048036038101906103f49190612531565b611055565b005b60007f80ac58cd000000000000000000000000000000000000000000000000000000007bffffffffffffffffffffffffffffffffffffffffffffffffffffffff1916827bffffffffffffffffffffffffffffffffffffffffffffffffffffffff191614806104c657507f5b5e139f000000000000000000000000000000000000000000000000000000007bffffffffffffffffffffffffffffffffffffffffffffffffffffffff1916827bffffffffffffffffffffffffffffffffffffffffffffffffffffffff1916145b806104d657506104d5826110d8565b5b9050919050565b6060600080546104ec90612778565b80601f016020809104026020016040519081016040528092919081815260200182805461051890612778565b80156105655780601f1061053a57610100808354040283529160200191610565565b820191906000526020600020905b81548152906001019060200180831161054857829003601f168201915b5050505050905090565b600061057a82611142565b6004600083815260200190815260200160002060009054906101000a900473ffffffffffffffffffffffffffffffffffffffff169050919050565b60006105c082610cd4565b90508073ffffffffffffffffffffffffffffffffffffffff168373ffffffffffffffffffffffffffffffffffffffff1603610630576040517f08c379a00000000000000000000000000000000000000000000000000000000081526004016106279061281b565b60405180910390fd5b8073ffffffffffffffffffffffffffffffffffffffff1661064f61118d565b73ffffffffffffffffffffffffffffffffffffffff16148061067e575061067d8161067861118d565b610fc1565b5b6106bd576040517f08c379a00000000000000000000000000000000000000000000000000000000081526004016106b4906128ad565b60405180910390fd5b6106c78383611195565b505050565b6106d461124e565b6008600085815260200190815260200160002060009054906101000a900460ff16610734576040517f08c379a000000000000000000000000000000000000000000000000000000000815260040161072b90612919565b60405180910390fd5b3373ffffffffffffffffffffffffffffffffffffffff1661075485610cd4565b73ffffffffffffffffffffffffffffffffffffffff16146107aa576040517f08c379a00000000000000000000000000000000000000000000000000000000081526004016107a1906129ab565b60405180910390fd5b6000600960008681526020019081526020016000209050838160020190816107d29190612b77565b50828160010190816107e49190612b77565b508181600301819055505050505050565b60096020528060005260406000206000915090508060000160009054906101000a900473ffffffffffffffffffffffffffffffffffffffff169080600101805461083e90612778565b80601f016020809104026020016040519081016040528092919081815260200182805461086a90612778565b80156108b75780601f1061088c576101008083540402835291602001916108b7565b820191906000526020600020905b81548152906001019060200180831161089a57829003601f168201915b5050505050908060020180546108cc90612778565b80601f01602080910402602001604051908101604052809291908181526020018280546108f890612778565b80156109455780601f1061091a57610100808354040283529160200191610945565b820191906000526020600020905b81548152906001019060200180831161092857829003601f168201915b5050505050908060030154905084565b6001600760008282546109689190612c78565b925050819055506000600754905061098033826112cc565b60405180608001604052803373ffffffffffffffffffffffffffffffffffffffff168152602001848152602001858152602001838152506009600083815260200190815260200160002060008201518160000160006101000a81548173ffffffffffffffffffffffffffffffffffffffff021916908373ffffffffffffffffffffffffffffffffffffffff1602179055506020820151816001019081610a269190612b77565b506040820151816002019081610a3c9190612b77565b506060820151816003015590505060016008600083815260200190815260200160002060006101000a81548160ff02191690831515021790555050505050565b610a8d610a8761118d565b826114e9565b610acc576040517f08c379a0000000000000000000000000000000000000000000000000000000008152600401610ac390612d1e565b60405180910390fd5b610ad783838361157e565b505050565b600060608060006008600086815260200190815260200160002060009054906101000a900460ff16610b43576040517f08c379a0000000000000000000000000000000000000000000000000000000008152600401610b3a90612919565b60405180910390fd5b60006009600087815260200190815260200160002090508060000160009054906101000a900473ffffffffffffffffffffffffffffffffffffffff1681600201826001018360030154828054610b9890612778565b80601f0160208091040260200160405190810160405280929190818152602001828054610bc490612778565b8015610c115780601f10610be657610100808354040283529160200191610c11565b820191906000526020600020905b815481529060010190602001808311610bf457829003601f168201915b50505050509250818054610c2490612778565b80601f0160208091040260200160405190810160405280929190818152602001828054610c5090612778565b8015610c9d5780601f10610c7257610100808354040283529160200191610c9d565b820191906000526020600020905b815481529060010190602001808311610c8057829003601f168201915b505050505091509450945094509450509193509193565b610ccf83838360405180602001604052806000815250610ef7565b505050565b600080610ce083611877565b9050600073ffffffffffffffffffffffffffffffffffffffff168173ffffffffffffffffffffffffffffffffffffffff1603610d51576040517f08c379a0000000000000000000000000000000000000000000000000000000008152600401610d4890612d8a565b60405180910390fd5b80915050919050565b60008073ffffffffffffffffffffffffffffffffffffffff168273ffffffffffffffffffffffffffffffffffffffff1603610dca576040517f08c379a0000000000000000000000000000000000000000000000000000000008152600401610dc190612e1c565b60405180910390fd5b600360008373ffffffffffffffffffffffffffffffffffffffff1673ffffffffffffffffffffffffffffffffffffffff168152602001908152602001600020549050919050565b610e1961124e565b610e2360006118b4565b565b6000600660009054906101000a900473ffffffffffffffffffffffffffffffffffffffff16905090565b606060018054610e5e90612778565b80601f0160208091040260200160405190810160405280929190818152602001828054610e8a90612778565b8015610ed75780601f10610eac57610100808354040283529160200191610ed7565b820191906000526020600020905b815481529060010190602001808311610eba57829003601f168201915b5050505050905090565b610ef3610eec61118d565b838361197a565b5050565b610f08610f0261118d565b836114e9565b610f47576040517f08c379a0000000000000000000000000000000000000000000000000000000008152600401610f3e90612d1e565b60405180910390fd5b610f5384848484611ae6565b50505050565b6060610f6482611142565b6000610f6e611b42565b90506000815111610f8e5760405180602001604052806000815250610fb9565b80610f9884611b59565b604051602001610fa9929190612e78565b6040516020818303038152906040525b915050919050565b6000600560008473ffffffffffffffffffffffffffffffffffffffff1673ffffffffffffffffffffffffffffffffffffffff16815260200190815260200160002060008373ffffffffffffffffffffffffffffffffffffffff1673ffffffffffffffffffffffffffffffffffffffff16815260200190815260200160002060009054906101000a900460ff16905092915050565b61105d61124e565b600073ffffffffffffffffffffffffffffffffffffffff168173ffffffffffffffffffffffffffffffffffffffff16036110cc576040517f08c379a00000000000000000000000000000000000000000000000000000000081526004016110c390612f0e565b60405180910390fd5b6110d5816118b4565b50565b60007f01ffc9a7000000000000000000000000000000000000000000000000000000007bffffffffffffffffffffffffffffffffffffffffffffffffffffffff1916827bffffffffffffffffffffffffffffffffffffffffffffffffffffffff1916149050919050565b61114b81611c27565b61118a576040517f08c379a000000000000000000000000000000000000000000000000000000000815260040161118190612d8a565b60405180910390fd5b50565b600033905090565b816004600083815260200190815260200160002060006101000a81548173ffffffffffffffffffffffffffffffffffffffff021916908373ffffffffffffffffffffffffffffffffffffffff160217905550808273ffffffffffffffffffffffffffffffffffffffff1661120883610cd4565b73ffffffffffffffffffffffffffffffffffffffff167f8c5be1e5ebec7d5bd14f71427d1e84f3dd0314c0f7b2291e5b200ac8c7c3b92560405160405180910390a45050565b61125661118d565b73ffffffffffffffffffffffffffffffffffffffff16611274610e25565b73ffffffffffffffffffffffffffffffffffffffff16146112ca576040517f08c379a00000000000000000000000000000000000000000000000000000000081526004016112c190612f7a565b60405180910390fd5b565b600073ffffffffffffffffffffffffffffffffffffffff168273ffffffffffffffffffffffffffffffffffffffff160361133b576040517f08c379a000000000000000000000000000000000000000000000000000000000815260040161133290612fe6565b60405180910390fd5b61134481611c27565b15611384576040517f08c379a000000000000000000000000000000000000000000000000000000000815260040161137b90613052565b60405180910390fd5b611392600083836001611c68565b61139b81611c27565b156113db576040517f08c379a00000000000000000000000000000000000000000000000000000000081526004016113d290613052565b60405180910390fd5b6001600360008473ffffffffffffffffffffffffffffffffffffffff1673ffffffffffffffffffffffffffffffffffffffff16815260200190815260200160002060008282540192505081905550816002600083815260200190815260200160002060006101000a81548173ffffffffffffffffffffffffffffffffffffffff021916908373ffffffffffffffffffffffffffffffffffffffff160217905550808273ffffffffffffffffffffffffffffffffffffffff16600073ffffffffffffffffffffffffffffffffffffffff167fddf252ad1be2c89b69c2b068fc378daa952ba7f163c4a11628f55a4df523b3ef60405160405180910390a46114e5600083836001611c6e565b5050565b6000806114f583610cd4565b90508073ffffffffffffffffffffffffffffffffffffffff168473ffffffffffffffffffffffffffffffffffffffff16148061153757506115368185610fc1565b5b8061157557508373ffffffffffffffffffffffffffffffffffffffff1661155d8461056f565b73ffffffffffffffffffffffffffffffffffffffff16145b91505092915050565b8273ffffffffffffffffffffffffffffffffffffffff1661159e82610cd4565b73ffffffffffffffffffffffffffffffffffffffff16146115f4576040517f08c379a00000000000000000000000000000000000000000000000000000000081526004016115eb906130e4565b60405180910390fd5b600073ffffffffffffffffffffffffffffffffffffffff168273ffffffffffffffffffffffffffffffffffffffff1603611663576040517f08c379a000000000000000000000000000000000000000000000000000000000815260040161165a90613176565b60405180910390fd5b6116708383836001611c68565b8273ffffffffffffffffffffffffffffffffffffffff1661169082610cd4565b73ffffffffffffffffffffffffffffffffffffffff16146116e6576040517f08c379a00000000000000000000000000000000000000000000000000000000081526004016116dd906130e4565b60405180910390fd5b6004600082815260200190815260200160002060006101000a81549073ffffffffffffffffffffffffffffffffffffffff02191690556001600360008573ffffffffffffffffffffffffffffffffffffffff1673ffffffffffffffffffffffffffffffffffffffff168152602001908152602001600020600082825403925050819055506001600360008473ffffffffffffffffffffffffffffffffffffffff1673ffffffffffffffffffffffffffffffffffffffff16815260200190815260200160002060008282540192505081905550816002600083815260200190815260200160002060006101000a81548173ffffffffffffffffffffffffffffffffffffffff021916908373ffffffffffffffffffffffffffffffffffffffff160217905550808273ffffffffffffffffffffffffffffffffffffffff168473ffffffffffffffffffffffffffffffffffffffff167fddf252ad1be2c89b69c2b068fc378daa952ba7f163c4a11628f55a4df523b3ef60405160405180910390a46118728383836001611c6e565b505050565b60006002600083815260200190815260200160002060009054906101000a900473ffffffffffffffffffffffffffffffffffffffff169050919050565b6000600660009054906101000a900473ffffffffffffffffffffffffffffffffffffffff16905081600660006101000a81548173ffffffffffffffffffffffffffffffffffffffff021916908373ffffffffffffffffffffffffffffffffffffffff1602179055508173ffffffffffffffffffffffffffffffffffffffff168173ffffffffffffffffffffffffffffffffffffffff167f8be0079c531659141344cd1fd0a4f28419497f9722a3daafe3b4186f6b6457e060405160405180910390a35050565b8173ffffffffffffffffffffffffffffffffffffffff168373ffffffffffffffffffffffffffffffffffffffff16036119e8576040517f08c379a00000000000000000000000000000000000000000000000000000000081526004016119df906131e2565b60405180910390fd5b80600560008573ffffffffffffffffffffffffffffffffffffffff1673ffffffffffffffffffffffffffffffffffffffff16815260200190815260200160002060008473ffffffffffffffffffffffffffffffffffffffff1673ffffffffffffffffffffffffffffffffffffffff16815260200190815260200160002060006101000a81548160ff0219169083151502179055508173ffffffffffffffffffffffffffffffffffffffff168373ffffffffffffffffffffffffffffffffffffffff167f17307eab39ab6107e8899845ad3d59bd9653f200f220920489ca2b5937696c3183604051611ad99190612025565b60405180910390a3505050565b611af184848461157e565b611afd84848484611c74565b611b3c576040517f08c379a0000000000000000000000000000000000000000000000000000000008152600401611b3390613274565b60405180910390fd5b50505050565b606060405180602001604052806000815250905090565b606060006001611b6884611dfb565b01905060008167ffffffffffffffff811115611b8757611b86612227565b5b6040519080825280601f01601f191660200182016040528015611bb95781602001600182028036833780820191505090505b509050600082602001820190505b600115611c1c578080600190039150507f3031323334353637383961626364656600000000000000000000000000000000600a86061a8153600a8581611c1057611c0f613294565b5b04945060008503611bc7575b819350505050919050565b60008073ffffffffffffffffffffffffffffffffffffffff16611c4983611877565b73ffffffffffffffffffffffffffffffffffffffff1614159050919050565b50505050565b50505050565b6000611c958473ffffffffffffffffffffffffffffffffffffffff16611f4e565b15611dee578373ffffffffffffffffffffffffffffffffffffffff1663150b7a02611cbe61118d565b8786866040518563ffffffff1660e01b8152600401611ce09493929190613318565b6020604051808303816000875af1925050508015611d1c57506040513d601f19601f82011682018060405250810190611d199190613379565b60015b611d9e573d8060008114611d4c576040519150601f19603f3d011682016040523d82523d6000602084013e611d51565b606091505b506000815103611d96576040517f08c379a0000000000000000000000000000000000000000000000000000000008152600401611d8d90613274565b60405180910390fd5b805181602001fd5b63150b7a0260e01b7bffffffffffffffffffffffffffffffffffffffffffffffffffffffff1916817bffffffffffffffffffffffffffffffffffffffffffffffffffffffff191614915050611df3565b600190505b949350505050565b600080600090507a184f03e93ff9f4daa797ed6e38ed64bf6a1f0100000000000000008310611e59577a184f03e93ff9f4daa797ed6e38ed64bf6a1f0100000000000000008381611e4f57611e4e613294565b5b0492506040810190505b6d04ee2d6d415b85acef81000000008310611e96576d04ee2d6d415b85acef81000000008381611e8c57611e8b613294565b5b0492506020810190505b662386f26fc100008310611ec557662386f26fc100008381611ebb57611eba613294565b5b0492506010810190505b6305f5e1008310611eee576305f5e1008381611ee457611ee3613294565b5b0492506008810190505b6127108310611f13576127108381611f0957611f08613294565b5b0492506004810190505b60648310611f365760648381611f2c57611f2b613294565b5b0492506002810190505b600a8310611f45576001810190505b80915050919050565b6000808273ffffffffffffffffffffffffffffffffffffffff163b119050919050565b6000604051905090565b600080fd5b600080fd5b60007fffffffff0000000000000000000000000000000000000000000000000000000082169050919050565b611fba81611f85565b8114611fc557600080fd5b50565b600081359050611fd781611fb1565b92915050565b600060208284031215611ff357611ff2611f7b565b5b600061200184828501611fc8565b91505092915050565b60008115159050919050565b61201f8161200a565b82525050565b600060208201905061203a6000830184612016565b92915050565b600081519050919050565b600082825260208201905092915050565b60005b8381101561207a57808201518184015260208101905061205f565b60008484015250505050565b6000601f19601f8301169050919050565b60006120a282612040565b6120ac818561204b565b93506120bc81856020860161205c565b6120c581612086565b840191505092915050565b600060208201905081810360008301526120ea8184612097565b905092915050565b6000819050919050565b612105816120f2565b811461211057600080fd5b50565b600081359050612122816120fc565b92915050565b60006020828403121561213e5761213d611f7b565b5b600061214c84828501612113565b91505092915050565b600073ffffffffffffffffffffffffffffffffffffffff82169050919050565b600061218082612155565b9050919050565b61219081612175565b82525050565b60006020820190506121ab6000830184612187565b92915050565b6121ba81612175565b81146121c557600080fd5b50565b6000813590506121d7816121b1565b92915050565b600080604083850312156121f4576121f3611f7b565b5b6000612202858286016121c8565b925050602061221385828601612113565b9150509250929050565b600080fd5b600080fd5b7f4e487b7100000000000000000000000000000000000000000000000000000000600052604160045260246000fd5b61225f82612086565b810181811067ffffffffffffffff8211171561227e5761227d612227565b5b80604052505050565b6000612291611f71565b905061229d8282612256565b919050565b600067ffffffffffffffff8211156122bd576122bc612227565b5b6122c682612086565b9050602081019050919050565b82818337600083830152505050565b60006122f56122f0846122a2565b612287565b90508281526020810184848401111561231157612310612222565b5b61231c8482856122d3565b509392505050565b600082601f8301126123395761233861221d565b5b81356123498482602086016122e2565b91505092915050565b6000806000806080858703121561236c5761236b611f7b565b5b600061237a87828801612113565b945050602085013567ffffffffffffffff81111561239b5761239a611f80565b5b6123a787828801612324565b935050604085013567ffffffffffffffff8111156123c8576123c7611f80565b5b6123d487828801612324565b92505060606123e587828801612113565b91505092959194509250565b6123fa816120f2565b82525050565b60006080820190506124156000830187612187565b81810360208301526124278186612097565b9050818103604083015261243b8185612097565b905061244a60608301846123f1565b95945050505050565b60008060006060848603121561246c5761246b611f7b565b5b600084013567ffffffffffffffff81111561248a57612489611f80565b5b61249686828701612324565b935050602084013567ffffffffffffffff8111156124b7576124b6611f80565b5b6124c386828701612324565b92505060406124d486828701612113565b9150509250925092565b6000806000606084860312156124f7576124f6611f7b565b5b6000612505868287016121c8565b9350506020612516868287016121c8565b925050604061252786828701612113565b9150509250925092565b60006020828403121561254757612546611f7b565b5b6000612555848285016121c8565b91505092915050565b600060208201905061257360008301846123f1565b92915050565b6125828161200a565b811461258d57600080fd5b50565b60008135905061259f81612579565b92915050565b600080604083850312156125bc576125bb611f7b565b5b60006125ca858286016121c8565b92505060206125db85828601612590565b9150509250929050565b600067ffffffffffffffff821115612600576125ff612227565b5b61260982612086565b9050602081019050919050565b6000612629612624846125e5565b612287565b90508281526020810184848401111561264557612644612222565b5b6126508482856122d3565b509392505050565b600082601f83011261266d5761266c61221d565b5b813561267d848260208601612616565b91505092915050565b600080600080608085870312156126a05761269f611f7b565b5b60006126ae878288016121c8565b94505060206126bf878288016121c8565b93505060406126d087828801612113565b925050606085013567ffffffffffffffff8111156126f1576126f0611f80565b5b6126fd87828801612658565b91505092959194509250565b600080604083850312156127205761271f611f7b565b5b600061272e858286016121c8565b925050602061273f858286016121c8565b9150509250929050565b7f4e487b7100000000000000000000000000000000000000000000000000000000600052602260045260246000fd5b6000600282049050600182168061279057607f821691505b6020821081036127a3576127a2612749565b5b50919050565b7f4552433732313a20617070726f76616c20746f2063757272656e74206f776e6560008201527f7200000000000000000000000000000000000000000000000000000000000000602082015250565b600061280560218361204b565b9150612810826127a9565b604082019050919050565b60006020820190508181036000830152612834816127f8565b9050919050565b7f4552433732313a20617070726f76652063616c6c6572206973206e6f7420746f60008201527f6b656e206f776e6572206f7220617070726f76656420666f7220616c6c000000602082015250565b6000612897603d8361204b565b91506128a28261283b565b604082019050919050565b600060208201905081810360008301526128c68161288a565b9050919050565b7f456c20746f6b656e206e6f206578697374650000000000000000000000000000600082015250565b600061290360128361204b565b915061290e826128cd565b602082019050919050565b60006020820190508181036000830152612932816128f6565b9050919050565b7f536f6c6f20656c2070726f706965746172696f2070756564652061637475616c60008201527f697a6172206c612070726f706965646164000000000000000000000000000000602082015250565b600061299560318361204b565b91506129a082612939565b604082019050919050565b600060208201905081810360008301526129c481612988565b9050919050565b60008190508160005260206000209050919050565b60006020601f8301049050919050565b600082821b905092915050565b600060088302612a2d7fffffffffffffffffffffffffffffffffffffffffffffffffffffffffffffffff826129f0565b612a3786836129f0565b95508019841693508086168417925050509392505050565b6000819050919050565b6000612a74612a6f612a6a846120f2565b612a4f565b6120f2565b9050919050565b6000819050919050565b612a8e83612a59565b612aa2612a9a82612a7b565b8484546129fd565b825550505050565b600090565b612ab7612aaa565b612ac2818484612a85565b505050565b5b81811015612ae657612adb600082612aaf565b600181019050612ac8565b5050565b601f821115612b2b57612afc816129cb565b612b05846129e0565b81016020851015612b14578190505b612b28612b20856129e0565b830182612ac7565b50505b505050565b600082821c905092915050565b6000612b4e60001984600802612b30565b1980831691505092915050565b6000612b678383612b3d565b9150826002028217905092915050565b612b8082612040565b67ffffffffffffffff811115612b9957612b98612227565b5b612ba38254612778565b612bae828285612aea565b600060209050601f831160018114612be15760008415612bcf578287015190505b612bd98582612b5b565b865550612c41565b601f198416612bef866129cb565b60005b82811015612c1757848901518255600182019150602085019450602081019050612bf2565b86831015612c345784890151612c30601f891682612b3d565b8355505b6001600288020188555050505b505050505050565b7f4e487b7100000000000000000000000000000000000000000000000000000000600052601160045260246000fd5b6000612c83826120f2565b9150612c8e836120f2565b9250828201905080821115612ca657612ca5612c49565b5b92915050565b7f4552433732313a2063616c6c6572206973206e6f7420746f6b656e206f776e6560008201527f72206f7220617070726f76656400000000000000000000000000000000000000602082015250565b6000612d08602d8361204b565b9150612d1382612cac565b604082019050919050565b60006020820190508181036000830152612d3781612cfb565b9050919050565b7f4552433732313a20696e76616c696420746f6b656e2049440000000000000000600082015250565b6000612d7460188361204b565b9150612d7f82612d3e565b602082019050919050565b60006020820190508181036000830152612da381612d67565b9050919050565b7f4552433732313a2061646472657373207a65726f206973206e6f74206120766160008201527f6c6964206f776e65720000000000000000000000000000000000000000000000602082015250565b6000612e0660298361204b565b9150612e1182612daa565b604082019050919050565b60006020820190508181036000830152612e3581612df9565b9050919050565b600081905092915050565b6000612e5282612040565b612e5c8185612e3c565b9350612e6c81856020860161205c565b80840191505092915050565b6000612e848285612e47565b9150612e908284612e47565b91508190509392505050565b7f4f776e61626c653a206e6577206f776e657220697320746865207a65726f206160008201527f6464726573730000000000000000000000000000000000000000000000000000602082015250565b6000612ef860268361204b565b9150612f0382612e9c565b604082019050919050565b60006020820190508181036000830152612f2781612eeb565b9050919050565b7f4f776e61626c653a2063616c6c6572206973206e6f7420746865206f776e6572600082015250565b6000612f6460208361204b565b9150612f6f82612f2e565b602082019050919050565b60006020820190508181036000830152612f9381612f57565b9050919050565b7f4552433732313a206d696e7420746f20746865207a65726f2061646472657373600082015250565b6000612fd060208361204b565b9150612fdb82612f9a565b602082019050919050565b60006020820190508181036000830152612fff81612fc3565b9050919050565b7f4552433732313a20746f6b656e20616c7265616479206d696e74656400000000600082015250565b600061303c601c8361204b565b915061304782613006565b602082019050919050565b6000602082019050818103600083015261306b8161302f565b9050919050565b7f4552433732313a207472616e736665722066726f6d20696e636f72726563742060008201527f6f776e6572000000000000000000000000000000000000000000000000000000602082015250565b60006130ce60258361204b565b91506130d982613072565b604082019050919050565b600060208201905081810360008301526130fd816130c1565b9050919050565b7f4552433732313a207472616e7366657220746f20746865207a65726f2061646460008201527f7265737300000000000000000000000000000000000000000000000000000000602082015250565b600061316060248361204b565b915061316b82613104565b604082019050919050565b6000602082019050818103600083015261318f81613153565b9050919050565b7f4552433732313a20617070726f766520746f2063616c6c657200000000000000600082015250565b60006131cc60198361204b565b91506131d782613196565b602082019050919050565b600060208201905081810360008301526131fb816131bf565b9050919050565b7f4552433732313a207472616e7366657220746f206e6f6e20455243373231526560008201527f63656976657220696d706c656d656e7465720000000000000000000000000000602082015250565b600061325e60328361204b565b915061326982613202565b604082019050919050565b6000602082019050818103600083015261328d81613251565b9050919050565b7f4e487b7100000000000000000000000000000000000000000000000000000000600052601260045260246000fd5b600081519050919050565b600082825260208201905092915050565b60006132ea826132c3565b6132f481856132ce565b935061330481856020860161205c565b61330d81612086565b840191505092915050565b600060808201905061332d6000830187612187565b61333a6020830186612187565b61334760408301856123f1565b818103606083015261335981846132df565b905095945050505050565b60008151905061337381611fb1565b92915050565b60006020828403121561338f5761338e611f7b565b5b600061339d84828501613364565b9150509291505056fea264697066735822122025c6a39f0a5175b1a30d9c3a3657589fb6221b5ab51f15820d06b1fce832ffb164736f6c63430008130033",
  "immutableReferences": {},
  "source": "// SPDX-License-Identifier: MIT\r\npragma solidity 0.8.19;\r\n\r\nimport \"@openzeppelin/contracts/token/ERC721/ERC721.sol\";\r\nimport \"@openzeppelin/contracts/access/Ownable.sol\";\r\n\r\ncontract PropiedadNFT is ERC721, Ownable(){\r\n    uint256 private contadorIDToken;\r\n    mapping(uint256 => bool) private existePropiedad;\r\n\r\n    //Estructura de la propiedad\r\n    struct Propiedad {\r\n        address propietario;\r\n        string direccion; \r\n        string descripcion;\r\n        uint256 precio;\r\n    }\r\n\r\n    mapping(uint256 => Propiedad) public propiedades;\r\n\r\n    constructor() ERC721(\"NFT de Propiedad\", \"NFTP\") {\r\n        contadorIDToken = 0;\r\n    }\r\n\r\n    //Funcin para crear propiedad\r\n    function crearPropiedad(string memory _descripcion, string memory _direccion, uint256 _precio) external  {\r\n        contadorIDToken += 1;\r\n        uint256 IDToken = contadorIDToken;\r\n        _mint(msg.sender, IDToken);\r\n\r\n        propiedades[IDToken] = Propiedad({\r\n            propietario: msg.sender,\r\n            descripcion: _descripcion,\r\n             direccion: _direccion, \r\n            precio: _precio\r\n        });\r\n\r\n        existePropiedad[IDToken] = true;\r\n    }\r\n\r\n    //Funcin para actualizar la propiedad\r\n    function actualizarPropiedad(uint256 _IDToken, string memory _descripcion, string memory _direccion, uint256 _precio) external onlyOwner {\r\n        require(existePropiedad[_IDToken], \"El token no existe\");\r\n        require(ownerOf(_IDToken) == msg.sender, \"Solo el propietario puede actualizar la propiedad\");\r\n\r\n        Propiedad storage propiedad = propiedades[_IDToken];\r\n        propiedad.descripcion = _descripcion;\r\n        propiedad.direccion = _direccion;\r\n        propiedad.precio = _precio;\r\n    }\r\n\r\n    //Funcin para obtener detalles de la propiedad\r\n    function obtenerDetallesDePropiedad(uint256 _IDToken) external view returns (address, string memory, string memory, uint256) {\r\n        require(existePropiedad[_IDToken], \"El token no existe\");\r\n\r\n        Propiedad storage propiedad = propiedades[_IDToken];\r\n        return (propiedad.propietario, propiedad.descripcion, propiedad.direccion, propiedad.precio);\r\n    }\r\n}\r\n",
  "sourcePath": "C:\\Programacion\\Conexion\\Prop-token-LACC\\frontend\\contracts\\PropiedadNFT.sol",
  "compiler": {
    "name": "solc",
    "version": "0.8.19+commit.7dd6d404.Emscripten.clang"
  },
  "schemaVersion": "3.4.16",
  "updatedAt": "2023-10-26T21:26:12.132Z",
  "networkType": "ethereum",
  "devdoc": {
    "events": {
      "Approval(address,address,uint256)": {
        "details": "Emitted when `owner` enables `approved` to manage the `tokenId` token."
      },
      "ApprovalForAll(address,address,bool)": {
        "details": "Emitted when `owner` enables or disables (`approved`) `operator` to manage all of its assets."
      },
      "Transfer(address,address,uint256)": {
        "details": "Emitted when `tokenId` token is transferred from `from` to `to`."
      }
    },
    "kind": "dev",
    "methods": {
      "approve(address,uint256)": {
        "details": "See {IERC721-approve}."
      },
      "balanceOf(address)": {
        "details": "See {IERC721-balanceOf}."
      },
      "getApproved(uint256)": {
        "details": "See {IERC721-getApproved}."
      },
      "isApprovedForAll(address,address)": {
        "details": "See {IERC721-isApprovedForAll}."
      },
      "name()": {
        "details": "See {IERC721Metadata-name}."
      },
      "owner()": {
        "details": "Returns the address of the current owner."
      },
      "ownerOf(uint256)": {
        "details": "See {IERC721-ownerOf}."
      },
      "renounceOwnership()": {
        "details": "Leaves the contract without owner. It will not be possible to call `onlyOwner` functions. Can only be called by the current owner. NOTE: Renouncing ownership will leave the contract without an owner, thereby disabling any functionality that is only available to the owner."
      },
      "safeTransferFrom(address,address,uint256)": {
        "details": "See {IERC721-safeTransferFrom}."
      },
      "safeTransferFrom(address,address,uint256,bytes)": {
        "details": "See {IERC721-safeTransferFrom}."
      },
      "setApprovalForAll(address,bool)": {
        "details": "See {IERC721-setApprovalForAll}."
      },
      "supportsInterface(bytes4)": {
        "details": "See {IERC165-supportsInterface}."
      },
      "symbol()": {
        "details": "See {IERC721Metadata-symbol}."
      },
      "tokenURI(uint256)": {
        "details": "See {IERC721Metadata-tokenURI}."
      },
      "transferFrom(address,address,uint256)": {
        "details": "See {IERC721-transferFrom}."
      },
      "transferOwnership(address)": {
        "details": "Transfers ownership of the contract to a new account (`newOwner`). Can only be called by the current owner."
      }
    },
    "version": 1
  },
  "userdoc": {
    "kind": "user",
    "methods": {},
    "version": 1
  }
}